:020000040800F2
:10000000700C00202D02000899310008D52D000841
:1000100095310008090800083D390008000000007B
:100020000000000000000000000000000D32000889
:10003000DD090008000000009B310008C332000801
:10004000470200084702000847020008470200086C
:10005000470200084702000847020008470200085C
:10006000470200084702000847020008470200084C
:10007000470200084702000847020008470200083C
:10008000470200084702000847020008470200082C
:100090002D390008470200084702000847020008FF
:1000A000470200084702000847020008470200080C
:1000B00047020008253300086133000847020008A2
:1000C00047020008470200084702000847020008EC
:1000D00047020008D9380008F5380008113900082F
:1000E00047020008470200084702000847020008CC
:1000F00047020008470200084702000847020008BC
:1001000047020008470200084702000847020008AB
:10011000470200084702000847020008470200089B
:10012000470200084702000847020008470200088B
:1001300000F002F800F06BF80AA090E8000C82448E
:100140008344AAF10107DA4501D100F060F8AFF26B
:10015000090EBAE80F0013F0010F18BFFB1A43F0A5
:10016000010318478CBA0000ACBA00000A444FF0F3
:10017000000C10F8013B13F0070408BF10F8014B06
:100180001D1108BF10F8015B641E05D010F8016B4B
:10019000641E01F8016BF9D113F0080F1EBF10F8AF
:1001A000014BAD1C0C1B09D16D1E58BF01F801CBD2
:1001B000FAD505E014F8016B01F8016B6D1EF9D555
:1001C0009142D6D37047000000230024002500266A
:1001D000103A28BF78C1FBD8520728BF30C148BFAA
:1001E0000B607047642900F09F80752900F09C80A7
:1001F000782900F0D580632900F09B82732900F0F4
:10020000A082002070471FB51FBD10B510BD00F0C3
:10021000CBFA1146FFF7F7FF03F072FE00F0E9FAA0
:1002200003B4FFF7F2FF03BC03F0ADFB09488047BE
:1002300009480047FEE7FEE7FEE7FEE7FEE7FEE7C8
:10024000FEE7FEE7FEE7FEE704480549054A064BE0
:1002500070470000CD320008310100087006002010
:10026000700C00207008002070080020704700000B
:100270000FB4044910B503AA029800F067FA10BC45
:100280005DF814FB1400002070B504468569006811
:10029000C10601D5302600E02026C00707D070BD7A
:1002A000D4E9012130469047206A401C20626D1E2F
:1002B000F6D570BD70B5044685690078C00707D1D2
:1002C00070BDD4E9012120209047206A401C2062A3
:1002D0006D1EF6D570BD70B50C460546012A05D0D9
:1002E0002878800600D5EA69002302E0012305E0B2
:1002F0005B1C934202D2E05C0028F9D1A869E618A1
:10030000C01AA861286A184428622846FFF7BCFF73
:1003100004E0D5E9012114F8010B9047B442F8D369
:100320002846FFF7C7FF70BD2DE9F04106460024BF
:1003300010687529314616A510D0AFF3008000284B
:1003400002DA404213A507E031688A0701D512A5F9
:1003500002E0490704D511A5012401E0AFF30080B4
:1003600000210A2206F1240709E0B0FBF2FCB0FBF1
:10037000F2F302FB1C00303078541846491C002868
:10038000F3D123462A463046BDE8F04100F06EB96D
:10039000000000002D0000002B00000020000000E5
:1003A00070B504460D4621461068AFF300802188E1
:1003B000090502D50F4A7A4402E00E4A7A440E3209
:1003C000002104F1240305E000F00F060009965D0A
:1003D0005E54491C0028F7D120780023000704D57B
:1003E000702D02D009B1022311322046BDE87040C1
:1003F00000F03CB966B700002DE9F05F894604467D
:100400004FF0000ADFF874B1FB44C0F820A020468A
:10041000E1688847002874D0252806D0D4E9012156
:100420009047206A401C2062F1E700265F46204684
:10043000E16888472028054607DB312D05D2781969
:1004400010F8200C08B10643F1E7B00701D526F0FB
:100450000406C4F81CA00027C4F818A02A2D09D04F
:10046000284603F089FA38B304EB8708303DC8F812
:10047000185019E059F8041B204604EB87029161DB
:10048000E1688847012F054618D1E069002820DA85
:1004900026F020061DE0D8F8180000EB800005EBE0
:1004A00040003038C8F818002046E1688847054603
:1004B00003F062FA0028EED1012F0AD02E2D08D1C8
:1004C0002046E16888477F1C0546022F46F020063B
:1004D000C4DBA069002803DA404246F00106A061AF
:1004E000F00701D026F010066C2D0BD0682D09D036
:1004F0004C2D39D06A2D35D0742D35D07A2D33D08E
:1005000016E038E0E1682F4620468847B8420546A5
:1005100009D16C2F26D04FF48060E1680643204655
:100520008847054604E06C2F1AD04FF480700643CC
:100530000DB3A5F14100192802D8203546F4006614
:100540004A462946204626604E46FFF74BFE80B1BC
:1005500001280BD0F61D26F0070000F1080956E728
:100560004020E4E78020D8E70020D6E706F1040920
:100570004DE7284652E7206ABDE8F09F3CB70000EF
:1005800010B5203AC0F00B80B1E81850203AA0E82E
:100590001850B1E81850A0E81850BFF4F5AF5FEA62
:1005A000027C24BFB1E81850A0E8185044BF18C915
:1005B00018C0BDE810405FEA827C24BF51F8043BBC
:1005C00040F8043B08BF7047D20728BF31F8023B10
:1005D00048BF11F8012B28BF20F8023B48BF00F8A4
:1005E000012B70474FF0013C50F8042B51F8043BAD
:1005F0009A4221D1A2EB0C03934313EACC1317D1F7
:1006000050F8042B51F8043B9A4215D1A2EB0C038D
:10061000934313EACC130BD150F8042B51F8043B4D
:100620009A4209D1A2EB0C03934313EACC13DBD01B
:100630004FF00000704700BFD01A01BAB1FA81F143
:1006400001F0180122FA01F0CB40C1F12001DBB228
:10065000C0B2C01A2CFA01F3D11A914311EAC311A6
:10066000E6D1704770477047704770472DE9F047F3
:100670000D4699469246044600F124080168880612
:1006800004D5E06921F01001216000E00120A842BA
:1006900001DD471B00E00027A1697A1902EB090080
:1006A000081AA0612078C00602D42046FFF7ECFDAE
:1006B000002608E0D4E901211AF806009047206AD4
:1006C000401C761C20624E45F4DB2078C0060AD51B
:1006D0002046FFF7D9FD06E0D4E9012130209047FC
:1006E000206A401C2062381EA7F10107F4DC07E0F5
:1006F000D4E9012118F805009047206A401C2062C7
:10070000281EA5F10105F3DC2046FFF7D3FD207874
:10071000000602D50220BDE8F0870120FBE710B5F6
:10072000436913B1AFF3008001E0FFF7D4FD01206E
:1007300010BD127800F124010A7000224A700122D3
:10074000EDE711684FF0FF32E9E70000074B70B5A5
:100750000D467B4400F011F80446284600F020F8CE
:1007600010B14FF0FF3070BD204670BD4337000020
:1007700001694A1C02610878704700B58FB0CDE965
:1007800001310021059105497944CDE90310114655
:100790006846FFF731FE0FB000BD0000E5FFFFFF28
:1007A000007B00F080007047754600F029F8AE46E7
:1007B00005006946534620F00700854618B020B56D
:1007C000FFF742FDBDE820404FF000064FF0000764
:1007D0004FF000084FF0000B21F00701AC46ACE8E9
:1007E000C009ACE8C009ACE8C009ACE8C0098D4656
:1007F00070470446AFF300802046FFF711FD00006C
:10080000004870471006002000BFFEE72DE9F041C8
:1008100088B004460D4616461F46DDF8388011485C
:10082000114908601C2201A90F48001DFFF7A8FE0E
:100830000D484760C0F80880C4600661456100212A
:100840000176417681760121C176002101774177D9
:1008500000F01EFC18B1012008B0BDE8F0810020B6
:10086000FAE70000006400402C030020FEB50746B4
:100870000D4616460024122012490860124800EB6B
:1008800006404860042088600020C8600846056172
:1008900000BF04E0385D0DF80400601CC4B2AC4237
:1008A000F8DB02AB6A460749084800F0ADF808B12A
:1008B0000120FEBD00BF054800F0A8FA0328FAD1C8
:1008C0000020F6E790030020100030002C030020E9
:1008D000FEB507460D461646002412201249086050
:1008E000124800EB06404860042088600020C86081
:1008F0000846056100BF04E0385D0DF80400601C87
:10090000C4B2AC42F8DB02AB6A460749084800F0C3
:100910007BF808B10120FEBD00BF054800F076FA63
:100920000328FAD10020F6E79003002010002000F1
:100930002C03002000B58BB000200690079001200A
:1009400008900020019002900390049005900120EF
:1009500009900E200A9001A9134800F000F908B18F
:1009600000BFFEE7104800F086FD08B100BFFEE7BB
:100970000E4A06210C4800F0C5FC02210A4800F08E
:100980002EF808B100BFFEE740F2213008490860A8
:10099000012048600020C8608860022008610020B3
:1009A00008750BB000BD00002C030020B91300082F
:1009B000900300201CB506A010210B464FF4C8720E
:1009C000CDE9001082211E2002F058FB1CBD000062
:1009D00043414E204552524F52000000704710B51F
:1009E000024692F82030012B01D0022B06D110686C
:1009F0004069084314686061002010BD506A40F4EB
:100A0000802050620120F8E7F0B504460D461E46EE
:100A100094F8207020688368A86800B900E000BFDF
:100A2000012F01D0022F7CD103F0806030B903F098
:100A3000006018B903F08050002873D0C3F301613F
:100A4000022905D9606A40F4000060620120F0BD0F
:100A5000012088403060A86860B9B5F800C0E86837
:100A600040EA4C5C206800F5C07000EB0110C0F853
:100A700000C00FE0D5E901C040EACC00D5F80CC0B9
:100A800040EA0C00D4F800C00CF5C07C0CEB011C53
:100A9000CCF80000D5F810C0206800F5C07000EB5D
:100AA0000110C0F804C0287D01280ED1206800F58F
:100AB000C07000EB0110406840F4807C206800F5B5
:100AC000C07000EB0110C0F804C0D079000692F8A5
:100AD00006C040EA0C4092F805C040EA0C2C1079A0
:100AE0004CEA000C206800F5C07000EB0110C0F863
:100AF0000CC0D078000692F802C040EA0C4092F890
:100B000001C040EA0C2092F800C040EA0C00D4F882
:100B100000C00CF5C07C0CEB011CCCF80800206870
:100B200001E016E00FE000F5C07000EB0110006876
:100B300040F0010C206800F5C07000EB0110C0F817
:100B400000C0002083E7606A40F40010606201206A
:100B50007DE7606A40F480206062012077E7F0B5AD
:100B600004460A46216894F82050012D01D0022D38
:100B700074D1D1F8000240F00100C1F80002107DEC
:100B800000F01F06012000FA06F3D1F81C0298437A
:100B9000C1F81C02D069C8B9D1F80C029843C1F859
:100BA0000C02908880B2968940EA064601F51070E2
:100BB000576940F83760108880B2168940EA0646C7
:100BC00001F51070576900EBC7004660D069012835
:100BD00019D1D1F80C021843C1F80C02908880B2E8
:100BE000168840EA064601F51070576940F83760EC
:100BF000908980B2168940EA064601F5107057695F
:100C000000EBC7004660906928B9D1F80402984308
:100C1000C1F8040204E0D1F804021843C1F8040248
:100C2000106928B9D1F814029843C1F8140204E0FD
:100C3000D1F814021843C1F81402106A012804D133
:100C4000D1F81C021843C1F81C02D1F8000220F0B0
:100C50000100C1F800020020F0BDFFE7606A40F427
:100C6000802060620120F7E7704710B5024600203F
:100C700092F82030012B01D0022B09D121B9146840
:100C8000E46804F0030003E01468246904F003003E
:100C900010BD70B5044694F82050012D01D0022DEE
:100CA0007DD151B92068C06800F0030080B9606A46
:100CB00040F400106062012070BD2068006900F0FF
:100CC000030028B9606A40F4001060620120F3E775
:100CD000206800F5D87000EB0110006800F00400F7
:100CE0009060906840B9206800F5D87000EB011062
:100CF0000068400D106007E0206800F5D87000EB38
:100D000001100068C0085060206800F5D87000EB42
:100D10000110006800F00200D060206800F5D87073
:100D200000EB0110406800F00F001061206800F532
:100D3000D87000EB0110406800F47F40000A906119
:100D4000206800F5D87000EB01104068000C50617D
:100D5000206800F5D87000EB0110806818702068DA
:100D600000F5D87000EB0110806800F47F40000AA5
:100D70005870206800F5D87000EB0110806800F40E
:100D80007F00000C9870206800F5D87000EB01100F
:100D90008068000ED870206800F5D87000E02FE061
:100DA00000EB0110C0681871206800F5D87000EBE6
:100DB0000110C06800F47F40000A5871206800F5F7
:100DC000D87000EB0110C06800F47F00000C98712F
:100DD000206800F5D87000EB0110C068000ED871D3
:100DE00031B92068C06840F020002668F06005E056
:100DF0002068006940F020002668306100205BE731
:100E0000606A40F480206062012055E701460020BE
:100E100091F82020012A01D0022A11D10B689B6889
:100E200003F0806303B1401C0B689B6803F0006310
:100E300003B1401C0B689B6803F0805303B1401C56
:100E400070472DE9F05F0446002520684669206858
:100E5000D0F80490206887682068D0F80CA020683B
:100E6000D0F810B02068D0F8188006F001000028F3
:100E700055D007F00100C0B101202168886007F05B
:100E8000020018B12046A16A88470EE007F004006E
:100E900010B145F4006508E007F0080010B145F412
:100EA000805502E02046616B884707F48070C8B126
:100EB0004FF480702168886007F4007018B12046F4
:100EC000E16A88470EE007F4806010B145F40055F0
:100ED00008E007F4006010B145F4804502E02046C8
:100EE000A16B884707F48030C8B14FF48030216887
:100EF000886007F4003018B12046216B88470EE067
:100F000007F4802010B145F4004508E007F4002004
:100F100010B145F4803502E02046E16B884706F0C9
:100F2000080038B10AF0100020B145F40075102017
:100F30002168C86006F0040040B10AF0080028B13A
:100F400008202168C8602046616C884706F00200CE
:100F500038B12068C06800F0030010B12046216C51
:100F6000884706F0400038B10BF0100020B145F47E
:100F7000806510202168086106F0200040B10BF068
:100F8000080028B10820216808612046E16C8847E4
:100F900006F0100038B12068006900F0030010B1BD
:100FA0002046A16C884706F4003040B109F01000DB
:100FB00028B11020216848602046216D884706F43A
:100FC000803040B109F0080028B10820216848604D
:100FD0002046616D884706F4004088B309F004009C
:100FE00078B306F4807020B108F0010008B145F034
:100FF000010506F4007020B108F0020008B145F0C8
:10100000020506F4806020B108F0040008B145F044
:10101000040506F40060A0B108F0700088B108F083
:101020007000402817D006DC10280BD020280CD0E8
:10103000302819D10CE0502810D0602814D110E0CD
:101040001DE019E045F008050FE045F010050CE043
:1010500045F0200509E045F0400506E045F0800533
:1010600003E045F4807500E000BF00BF20688069A0
:1010700020F07000216888610420216848602DB14B
:10108000606A284360622046A16D8847BDE8F09FF2
:1010900070B504460CB9012070BD94F820000028FA
:1010A00020D168482064684860646848A064684843
:1010B000E0646848A0626848E06268482063684865
:1010C00060636848A0636848E063684820656848D2
:1010D00060656848A065E06D08B96748E06520462E
:1010E000E16D88472068006820F0020021680860F0
:1010F00000F07AFC05460DE000F076FC401B0A2863
:1011000008D9606A40F400306062052084F820004D
:101110000120C1E72068406800F002000028EBD100
:101120002068006840F001002168086000F05CFC65
:1011300005460DE000F058FC401B0A2808D9606AFB
:1011400040F400306062052084F820000120A3E70D
:101150002068406800F001000028EBD0207E0128C4
:1011600006D12068006840F080002168086005E032
:101170002068006820F0800021680860607E0128F7
:1011800006D12068006840F040002168086005E052
:101190002068006820F0400021680860A07E0128D7
:1011A00006D12068006840F020002168086005E052
:1011B0002068006820F0200021680860E07E012897
:1011C00006D12068006820F010002168086005E062
:1011D0002068006840F0100021680860207F012826
:1011E00006D12068006840F008002168086005E02A
:1011F0002068006820F0080021680860607F0128EE
:1012000006D12068006840F004002168086005E00D
:101210002068006820F0040021680860D4E9020119
:10122000084321690843616908436168491E08430E
:101230002168C86100206062012084F8200000203D
:101240002AE70000B9130008B71300087314000858
:1012500071140008D7140008DB140008DF1400081C
:10126000D5140008D9140008DD140008751400080E
:10127000E1140008690C00087D12000810B586B062
:10128000044600BF1D48C06940F000701B49C8619A
:101290000846C06900F00070019000BF00BF00BFA9
:1012A0000846806940F0040088610846806900F0C3
:1012B0000400019000BF00BF881402900220039038
:1012C000012004900320059002A90D4800F0DEF9EA
:1012D0004FF4006002900020039002A9084800F03B
:1012E000D5F9142000F0CDFB02221146142000F0A5
:1012F000D8FB142000F0C5FB06B010BD0010024062
:101300000008014010B5034600242AB9586A40F489
:1013100080005862012010BD93F82000012830D1D0
:101320000F2927D2DFE801F0080A0C0E101214165C
:10133000181A1C1E202224009A6221E0DA621FE0A3
:101340001A631DE05A631BE09A6319E0DA6317E041
:101350001A6415E05A6413E09A6411E0DA640FE04D
:101360001A650DE05A650BE09A6509E0DA6507E059
:101370001A6605E0586A40F480005862012400BFF4
:1013800017E093F8200078B90D2902D00E2904D176
:1013900001E0DA6507E01A6605E0586A40F480006B
:1013A0005862012400BF04E0586A40F4800058628B
:1013B00001242046AFE770477CB50546002128464A
:1013C000FFF753FC08B9FFF7F5FA6B46244A0021F2
:1013D0002846FFF75EFC08B1FFF7ECFA20480079D9
:1013E00000F00F041E4840681E49B1EB101F2BD1BE
:1013F0009DF800109DF8012001EB022000EBD07158
:101400004910A1F57A5109B2174A22F814109DF833
:1014100002009DF8031000EB012001B202F1080068
:1014200020F81410103030F81410083820F8141078
:101430009DF805009DF8061000EB012081B202F135
:10144000180020F814100AE0054840680549491CB6
:10145000B1EB101F03D19DF80000044908557CBD75
:10146000A80300200200FF00C40300202600002083
:1014700070477047704770B5044694F82000012803
:1014800022D1022084F820002068006820F00100AA
:101490002168086000F0A8FA05460DE000F0A4FA03
:1014A000401B0A2808D9606A40F4003060620520B9
:1014B00084F82000012070BD2068406800F0010021
:1014C0000028EBD16062F6E7606A40F400206062B9
:1014D0000120F0E7704770477047704770477047CA
:1014E0007047000070B50446002594F821000228DA
:1014F00003D00420A0630125C1E02068006820F02B
:101500000E00216808602068006820F00100216852
:1015100008605C492068884252D95A497839206865
:10152000884201D1012047E0564964392068884249
:1015300001D1102040E0534950392068884201D140
:10154000801539E04F493C392068884201D1801428
:1015500032E04C4928392068884202D14FF480306B
:101560002AE0484914392068884202D14FF480109B
:1015700022E044492068884201D140041CE04249ED
:101580002068884201D1012016E03F4914312068CB
:10159000884201D110200FE03B4928312068884261
:1015A00001D1801508E038493C312068884201D1DA
:1015B000801401E04FF480303349091F086051E086
:1015C000304978392068884201D1012047E02D490F
:1015D00064392068884201D1102040E029495039FF
:1015E0002068884201D1801539E026493C392068BD
:1015F000884201D1801432E022492839206888428B
:1016000002D14FF480302AE01E4914392068884204
:1016100002D14FF4801022E01A492068884201D19B
:1016200040041CE018492068884201D1012016E0DE
:10163000154914312068884201D110200FE0124969
:1016400028312068884201D1801508E00E493C31DC
:101650002068884201D1801401E04FF480300949AC
:1016600080394860012084F8210000BF002084F800
:10167000200000BF606B10B12046616B8847284690
:1016800070BD000080000240080402402DE9F847C8
:10169000024600239C467BE14FF0010808FA03F460
:1016A000D1F8008008EA0400A0427DD1DFF8F4A25E
:1016B000D1F80480A8EB0A09D0453AD014DCB8F17F
:1016C000030F50D009DCB8F1000F31D0B8F1010F91
:1016D0001CD0B8F1020F49D120E0B8F1110F18D099
:1016E000B8F1120F42D11EE0B9F5881F25D006DCF3
:1016F000B9F5803F20D0B9F5801F37D11AE0B9F590
:10170000001F18D0B9F5041F30D117E0D1F80CC074
:101710002DE0D1F80C8008F1040C28E0D1F80C8001
:1017200008F1080C23E0D1F80C8008F10C0C1EE045
:1017300000BF00BF00BF00BF00BF00BFD1F80880DE
:10174000B8F1000F02D14FF0040C0BE0D1F8088083
:10175000B8F1010F03D14FF0080C146102E04FF013
:10176000080C546103E04FF0000C00E000BF00BF24
:10177000FF2801D8904601E002F104084646FF2800
:1017800002D84FEA830803E0A3F108084FEA88086B
:101790004746D6F800804FF00F0909FA07F928EA02
:1017A00009080CFA07F900E07AE048EA0908C6F8E7
:1017B0000080D1F8048008F08058B8F1805F6FD1C4
:1017C00000BFDFF8E481D8F8188048F00108DFF89E
:1017D000D891C9F81880C846D8F8188008F00108D0
:1017E000CDF8008000BF00BF4FEAB9384FEA930937
:1017F00058F829504FEA83784FEA18794FF00F08CC
:1018000008FA09F825EA0805DFF8A081424502D167
:101810004FF0000824E0DFF89881424502D14FF0F4
:1018200001081DE0DFF88C81424502D14FF002082B
:1018300016E0DFF88481424502D14FF003080FE043
:10184000DFF87881424502D14FF0040808E0DFF864
:101850007081424502D14FF0050801E04FF00608C3
:101860004FEA83794FEA197908FA09F848EA050539
:10187000DFF850814FEA930948F82950D1F80480E5
:1018800008F48038B8F5803F0BD1DFF83C81D8F8F8
:10189000008048EA0008DFF83091C9F800800AE0CB
:1018A00075E0DFF82481D8F8008028EA0008DFF826
:1018B0001891C9F80080D1F8048008F40038B8F510
:1018C000003F0ED1DFF8008108F10408D8F800804D
:1018D00048EA0008DFF8F09009F10409C9F800802F
:1018E0000DE0DFF8E48008F10408D8F8008028EA69
:1018F0000008DFF8D49009F10409C9F80080D1F894
:10190000048008F48018B8F5801F0ED1DFF8B88085
:1019100008F10808D8F8008048EA0008DFF8A89025
:1019200009F10809C9F800800DE0DFF89C8008F192
:101930000808D8F8008028EA0008DFF88C9009F140
:101940000809C9F80080D1F8048008F40018B8F537
:10195000001F0ED1DFF8708008F10C08D8F8008065
:1019600048EA0008DFF8609009F10C09C9F8008026
:101970000DE0DFF8548008F10C08D8F8008028EA60
:101980000008DFF8449009F10C09C9F800805B1CDD
:10199000D1F8008028FA03F8B8F1000F7FF47CAE8C
:1019A000BDE8F88700001110001002400008014057
:1019B000000C0140001001400014014000180140DB
:1019C000001C0140080001400004014002469368E9
:1019D0000B400BB1012000E0002070470AB101610B
:1019E00001E00B0403617047014800687047000084
:1019F00004000020034800680349097808440149AD
:101A000008607047040000200C00002010B5084852
:101A1000006840F0100006490860052000F080F8DA
:101A20000F2000F007F800F02BF8002010BD000098
:101A30000020024070B504460E4800784FF47A71D9
:101A4000B1FBF0F00C490968B1FBF0F5284600F055
:101A5000F7FB08B1012070BD102C07D200222146EF
:101A6000501E00F01EF80548046001E00120F2E776
:101A70000020F0E70C0000200000002008000020FB
:101A8000704701460846002809DB00F01F030122C9
:101A90009A4043099B0003F1E023C3F8002100BFF3
:101AA00070472DE9F05F80460D461646002701F08D
:101AB00047FF074639462A46334601F00700C0F182
:101AC000070ABAF1040F02D94FF0040A01E0C0F18D
:101AD000070AD14600F1040ABAF1070F02D24FF00B
:101AE000000A01E0A0F1030AD4464FF0010A0AFA05
:101AF00009FAAAF1010A0AEA020A0AFA0CFA4FF0F4
:101B0000010B0BFA0CFBABF1010B0BEA030B4AEADE
:101B10000B042146404601F01BFFBDE8F09F00008A
:101B200000BF00F00702064B19684FF6FF0319408B
:101B3000044B0B4343EA0221014B196000BF70477D
:101B40000CED00E00000FA0570B504460D460CB936
:101B5000012070BD5A48006800F00700A8420ED26C
:101B60005748006820F00700284355490860084698
:101B7000006800F00700A84201D00120E9E72078C2
:101B800000F0020002281DD1207800F00400042893
:101B900005D14C48406840F4E0604A4948602078EC
:101BA00000F00800082805D14648406840F460501D
:101BB000444948604348406820F0F000A168084369
:101BC00040494860207800F0010078B3606801283F
:101BD00006D13C48006800F4003090B90120B8E715
:101BE0006068022806D13748006800F0007040B9EC
:101BF0000120AEE73348006800F0020008B9012078
:101C0000A7E73048406820F00300616808432D4989
:101C10004860FFF7E9FE064609E0FFF7E5FE801B96
:101C200041F28831884202D9032092E707E0254833
:101C3000406800F00C006168B0EB810FEDD12048E6
:101C4000006800F00700A8420ED91D48006820F087
:101C5000070028431A4908600846006800F007009A
:101C6000A84201D0012074E7207800F00400042885
:101C700007D11448406820F4E060E1680843114946
:101C80004860207800F00800082808D10D48406816
:101C900020F46050216940EAC1000A49486000F020
:101CA0003FF808494968C1F30311074A515CC8402D
:101CB0000649086006480068FFF7BCFE002048E7B8
:101CC000002002400010024066730008000000205F
:101CD0000800002001480068704700000000002054
:101CE00000B5FFF7F7FF04494968C1F30221034A31
:101CF000515CC84000BD000000100240767300082F
:101D000000B5FFF7E7FF04494968C1F3C221034A60
:101D1000515CC84000BD000000100240767300080E
:101D2000F0B585B00FF26C0C9CE8E01001A8A0E8BB
:101D3000E0101CA52D68009500210022002300243E
:101D40000020194D696801F00C05F5B1042D02D091
:101D5000082D19D101E0154819E001ADC1F3834602
:101D6000AC5D01F4803555B10F4D6D68C5F340454C
:101D70001DF805200D4D6543B5FBF2F302E00C4D57
:101D800004FB05F3184602E000BF084800BF00BF8F
:101D900005B0F0BD02030405060708090A0B0C0D87
:101DA0000E0F1010010200000010024000127A0015
:101DB00000093D00F8B504460CB90120F8BD2078B3
:101DC00000F00100002878D0F848406800F00C00CE
:101DD00004280CD0F548406800F00C00082811D108
:101DE000F248406800F48030B0F5803F0AD1EF48F7
:101DF000006800F4003000285FD0606800285CD1E3
:101E00000120DBE700BF6068B0F5803F06D1E748FE
:101E1000006840F48030E549086028E0606858B9FF
:101E2000E248006820F48030E04908600846006815
:101E300020F4802008601AE06068B0F5A02F0BD174
:101E4000DA48006840F48020D849086008460068F5
:101E500040F4803008600AE0D448006820F4803004
:101E6000D24908600846006820F48020086000BF5E
:101E7000606888B1FFF7B8FD054606E0FFF7B4FDDE
:101E8000401B642801D9032098E7C848006800F483
:101E900000300028F2D010E0FFF7A6FD054606E06E
:101EA000FFF7A2FD401B642801D9032086E7BF4845
:101EB000006800F400300028F2D1207800F0020021
:101EC000022857D1B948406800F00C0050B1B7481B
:101ED000406800F00C00082818D1B448406800F4AD
:101EE000803098B9B148006800F0020020B1206944
:101EF000012801D0012061E7AC48006820F0F8001B
:101F0000616940EAC100A949086033E02069E8B18D
:101F10000120A7490860FFF767FD054606E0FFF7C7
:101F200063FD401B022801D9032047E79F48006852
:101F300000F002000028F2D09C48006820F0F80071
:101F4000616940EAC1009949086013E0002098499E
:101F50000860FFF749FD054606E0FFF745FD401B19
:101F6000022801D9032029E79048006800F0020008
:101F70000028F2D1207800F0080008282DD1A069AF
:101F8000B8B101208B490860FFF72EFD054606E039
:101F9000FFF72AFD401B022801D903200EE78348E2
:101FA000406A00F002000028F2D0012001F0F6F8AB
:101FB00013E000207F490860FFF716FD054606E0A4
:101FC000FFF712FD401B022801D90320F6E67748EF
:101FD000406A00F002000028F2D1207800F00400EE
:101FE000042873D100277148C06900F0805070B98F
:101FF00000BF6E48C06940F080506C49C861084617
:10200000C06900F08050009000BF00BF01276A48FF
:10201000006800F48070B0B96748006840F48070D0
:1020200065490860FFF7E0FC054606E0FFF7DCFCC9
:10203000401B642801D90320C0E65F48006800F413
:1020400080700028F2D000BFE068012806D1574810
:10205000006A40F001005549086227E0E06858B97D
:102060005248006A20F00100504908620846006AA0
:1020700020F00400086219E0E06805280BD14B4805
:10208000006A40F00400494908620846006A40F0CE
:10209000010008620AE04548006A20F00100434957
:1020A00008620846006A20F00400086200BFE06889
:1020B000A0B1FFF799FC054609E0FFF795FC401B2E
:1020C00041F28831884202D9032077E622E037487E
:1020D000006A00F002000028EFD012E0FFF784FC55
:1020E000054608E0FFF780FC401B41F2883188423A
:1020F00001D9032062E62D48006A00F002000028A2
:10210000F0D1012F05D12948C06920F0805027491E
:10211000C86100BFE069C8B32448406800F00C0003
:10212000082860D0E069022848D1002020490866CC
:10213000FFF75AFC054606E0FFF756FC401B022855
:1021400001D903203AE61948006800F00070002821
:10215000F2D1206AB0F5803F07D11448406820F4DE
:102160000030A168084311494860D4E908010843D8
:102170000E49496821F4741108430C494860012054
:102180000B490866FFF730FC054607E03DE0FFF726
:102190002BFC401B022801D903200FE603480068EE
:1021A00000F000700028F2D02FE000000010024084
:1021B0000000424280044242007000400020144966
:1021C0000866FFF711FC054606E0FFF70DFC401B13
:1021D000022801D90320F1E50E48006800F00070E4
:1021E0000028F2D111E0E069012800D1E6E50948B4
:1021F000466806F48031206A814204D106F47011E9
:10220000606A814201D00120D8E50020D6E50000B7
:102210000000424200100240042808D14FF0E021A3
:10222000096941F004014FF0E022116107E04FF02D
:10223000E021096921F004014FF0E02211617047AB
:1022400070B504462546681EB0F1807F01D3012099
:102250000FE0681E4FF0E02148610F214FF0FF3082
:1022600001F076FB00204FF0E02188610720086133
:10227000002070BD7047704710B504460CB90120AE
:1022800010BD94F83D0028B9002084F83C00204699
:1022900000F00CF8022084F83D00211D206801F0B8
:1022A00081F8012084F83D000020E9E738B50446B4
:1022B0000D492068884215D100BF0C48C06940F024
:1022C00002000A49C8610846C06900F00200009097
:1022D00000BF00BF032201211D20FFF7E2FB1D20EC
:1022E000FFF7CFFB38BD00000004004000100240A3
:1022F00001460868C06840F001000B68D8600868B3
:10230000806800F00702062A05D00868006840F0DF
:1023100001000B68186000207047704710B5044634
:1023200020680069C0F34000D8B12068C068C0F3DD
:102330004000B0B16FF002002168086101202077F1
:102340002068806900F0030018B12046FFF7E5FF20
:1023500005E0204600F0ADF8204600F0ABF8002084
:10236000207720680069C0F38000D8B12068C06879
:10237000C0F38000B0B16FF0040021680861022052
:1023800020772068806900F4407018B12046FFF77C
:10239000C4FF05E0204600F08CF8204600F08AF8E3
:1023A0000020207720680069C0F3C000D8B1206801
:1023B000C068C0F3C000B0B16FF0080021680861C8
:1023C000042020772068C06900F0030018B120467F
:1023D000FFF7A3FF05E0204600F06BF8204600F071
:1023E00069F80020207720680069C0F30010D8B198
:1023F0002068C068C0F30010B0B16FF01000216811
:102400000861082020772068C06900F4407018B186
:102410002046FFF782FF05E0204600F04AF82046FC
:1024200000F048F8002020772068006900F00100E3
:1024300058B12068C06800F0010030B16FF00100B1
:1024400021680861204600F037F820680069C0F371
:10245000C01058B12068C068C0F3C01030B16FF030
:102460008000216808612046FFF704FF20680069AA
:10247000C0F3801058B12068C068C0F3801030B13C
:102480006FF0400021680861204600F039F82068AC
:102490000069C0F3401058B12068C068C0F3401014
:1024A00030B16FF02000216808612046FFF7E3FE9D
:1024B00010BD70477047000070B505460D48854255
:1024C00017D10D48006838B101F0C2FD03F016FEC7
:1024D0000A4800F09DFE0CE0002404E000200749BB
:1024E00021F81400641C042CF8DB044800F090FE72
:1024F00000BF70BDB4040020A40100202A00002009
:10250000704770472DE9F047044620680568206849
:10251000C668206847694FF00008C14605F00F08FB
:10252000B8F1000F0AD105F0200038B106F0200004
:1025300020B1204601F042F8BDE8F087B8F1000F65
:102540006DD007F0010018B906F49070002866D02D
:1025500005F0010030B106F4807018B1E06B40F076
:102560000100E06305F0040030B107F0010018B18C
:10257000E06B40F00200E06305F0020030B107F0CC
:10258000010018B1E06B40F00400E06305F00800C2
:1025900030B107F0010018B1E06B40F00800E063D3
:1025A000E06B68B305F0200028B106F0200010B100
:1025B000204601F003F820684069C0F38019E06B01
:1025C00000F0080010B9B9F1000F22D0204600F049
:1025D000D5FF2068406900F04000B0B12068406934
:1025E00020F0400021684861606B50B11748616B72
:1025F0004863606BFEF776FF10B1606B416B8847F4
:102600000CE02046FFF77DFF08E02046FFF779FF4A
:1026100004E02046FFF775FF0020E0638CE705F03B
:10262000800030B106F0800018B1204601F0EAF8D1
:1026300082E705F0400030B106F0400018B12046B6
:1026400000F0ACFF78E700BF76E7000069350008CE
:1026500010B504460CB9012010BDA06900B100E01E
:1026600000BF94F8390028B9002084F838002046CB
:1026700000F028F8242084F839002068C06820F48D
:1026800000502168C860204600F0ECFF2068006917
:1026900020F49040216808612068406920F02A00F9
:1026A000216848612068C06840F400502168C86013
:1026B0000020E063202084F8390084F83A000020EC
:1026C000CAE7000010B586B004466E49206888420B
:1026D00044D100BF6C48806940F004006A498861B9
:1026E0000846806900F00400019000BF00BF00BFF1
:1026F0000846806940F4804088610846806900F49B
:102700008040019000BF00BF00BF0846806940F0D4
:10271000010088610846806900F00100019000BF57
:1027200000BF48150290022003900120049003206E
:10273000059002A95548FEF7A9FF4FF4806002906A
:102740000020039002A95148FEF7A0FF2520FFF7C3
:1027500098F9002211462520FFF7A3F94C4920687B
:10276000884243D100BF4848806940F00400464990
:1027700088610846806900F00400019000BF00BF36
:1027800000BF0846C06940F40030C8610846C0690F
:1027900000F40030019000BF00BF00BF0846806910
:1027A00040F0010088610846806900F00100019056
:1027B00000BF00BF0420029002200390012004907B
:1027C0000320059002A93148FEF760FF082002901F
:1027D0000020039002A92D48FEF758FF2620FFF79E
:1027E00050F9012211462620FFF75BF9294920689C
:1027F000884244D100BF2448806940F00800224943
:1028000088610846806900F00800019000BF00BFA1
:1028100000BF0846C06940F48020C8610846C0690E
:1028200000F48020019000BF00BF00BF084680690F
:1028300040F0010088610846806900F001000190C5
:1028400000BF00BF081502900220039001200490F1
:102850000320059002A91048FEF718FF4FF400600E
:1028600002900020039002A90B48FEF70FFF2720DB
:10287000FFF707F9012211462720FFF712F906B0EA
:1028800010BD000000380140001002400008014067
:102890000044004000480040000C014010B50346D1
:1028A00093F83A0020282FD101B10AB9012010BDB8
:1028B00000BF93F83800012801D10220F7E701207A
:1028C00083F8380000BF99629A85DA850020D863C2
:1028D000222083F83A0000BF002083F8380000BFB0
:1028E0001868C06840F480701C68E060186840692F
:1028F00040F001001C6860611868C06840F020006A
:102900001C68E0600020D2E70220D0E738B504461A
:10291000E649206888427DD1E5480078012809D041
:10292000E348007830B1E3480078552802D1002010
:10293000DF490870DE480078072872D2DFE800F02F
:102940000412202A424C5600DA480078552805D156
:10295000D7480078401CD649087002E00020D449CE
:10296000087062E0D3480078552805D1D048007837
:10297000401CCF49087002E00020CD49087054E0A7
:10298000CC480078CC490870C9480078401CC84938
:1029900008704AE0C7480078C7494870C5480078C1
:1029A000072809D10020C2490870FF20C349887058
:1029B0004FF6FF70888004E0BD480078401CBC4999
:1029C000087032E0BB480078BB498870B84800788E
:1029D000401CB749087028E0B6480078B649C8706E
:1029E000B3480078401CB24908701EE0B14908782D
:1029F000B1490978B14A1170AF4949785170AE496F
:102A000089789170AC49C97891801146898801EB29
:102A1000002101E00AE004E091800021A44A117045
:102A200003E00020A249087000BF00BFA44920684D
:102A3000884279D1A348007805287ED2DFE800F0EB
:102A40000311263D4B00A04800780D2805D19D4874
:102A50000078401C9B49087002E0002099490870EA
:102A60006FE0994800780A2808D10020974908703B
:102A700094480078401C9349087006E0924800781A
:102A80000D2802D000208F4908705AE08E48017846
:102A90008F488E4A127881548C480078401C8B49AC
:102AA000087008460078182806DB00200870854862
:102AB0000078401C8349087043E0834800780A2866
:102AC00005D180480078401C7E49087002E0002053
:102AD0007C49087035E07C4800780D2829D17C4875
:102AE00000687C4908607A48406848607848806897
:102AF00088607748C06880F000454FF080412846E4
:102B000004F056F97349C860714908694FF0804173
:102B100004F04EF96F4908616D48406948616E489C
:102B2000006818B9012002E00CE006E000206A49C4
:102B3000086000206349087003E0002061490870C4
:102B400000BF00BF6549206888427DD16448007895
:102B500005287AD2DFE800F00311263D4F006148D6
:102B600000780D2805D15E480078401C5C4908704B
:102B700002E000205A49087095E05A4800780A2877
:102B800008D100205849087055480078401C544925
:102B9000087006E0534800780D2802D00020504904
:102BA000087080E04F48017850484F4A12788154AD
:102BB0004D480078401C4C490870084600780728AA
:102BC00006DB0020087046480078401C4449087025
:102BD00069E0444800784549C871424800780A28AD
:102BE00005D13F480078401C3D49087002E00020B4
:102BF0003B49087057E03B4800780D284BD13B48D3
:102C0000C07800903AA16846FDF7ECFCF0B937486F
:102C100000783849887135484078C87133488078E1
:102C200008723248007948723048407988722F48DB
:102C30008079C8722D48007808702C484078487018
:102C40002A488078887022E02EE028E02AA1684691
:102C5000FDF7C8FCD8B925480078264908732348F1
:102C60004078487321488078887320480079C87379
:102C70001E48407908741D48807948740846007BD6
:102C8000C8700846407B08710846807B4871012067
:102C90001849887400BF00201149087003E0002023
:102CA0000F49087000BF00BF38BD00000038014068
:102CB00055000020640000204D0000206600002028
:102CC00000440040570000204C0000205600002027
:102CD0009C0400208404002094812142004800408C
:102CE0005900002062000020580000205A000020F7
:102CF0002B000000340500202D0000002DE9F843D2
:102D000004460D4616461F464FF0000994F8390058
:102D100020285CD105B116B90120BDE8F88300BFB9
:102D200094F83800012801D10220F6E7012084F848
:102D3000380000BF0020E063212084F83900FEF74E
:102D400053FE8146A684E6842BE0E08C401EE0849E
:102D5000A068B0F5805F16D14B4600228021204646
:102D6000009700F083FD08B10320D6E7A846B8F825
:102D70000000C0F3080021684860206908B9AD1C54
:102D80000FE06D1C0DE04B4600228021204600978D
:102D900000F06CFD08B10320BFE715F8010B2168B6
:102DA0004860E08C0028D0D14B46002240212046CC
:102DB000009700F05BFD08B10320AEE7202084F807
:102DC000390000BF002084F8380000BFA5E70220CA
:102DD000A3E7704700BFFEE700B585B000BF144809
:102DE000806940F00400124988610846806900F05B
:102DF0000400009000BF00BF00BF0846806940F09B
:102E0000400088610846806900F04000009000BFE3
:102E100000BF0120019000200290022003900320B7
:102E2000049001A90348FEF731FC05B000BD000085
:102E3000001002400008014030B504460D463E48EF
:102E4000808849F24131884205D03B48808845F26C
:102E50001031884214D13849488900F04FF92012C6
:102E600000F040F9E0B200F03DF93349888900F004
:102E700045F9281200F036F9E8B200F033F954E0D1
:102E80002D48808845F21051884220D12A4948892E
:102E900000F034F9201200F025F927494989491C2E
:102EA00088B200F02BF9E0B200F01CF922498889C1
:102EB00000F024F9281200F015F91F498989491CEE
:102EC00088B200F01BF9E8B200F00CF92DE01A48C6
:102ED000808841F66311884227D11748807920B94C
:102EE00015480088401E001B84B21349488900F031
:102EF00005F9201200F0F6F8E0B200F0F3F8201225
:102F000000F0F0F8E0B200F0EDF80B49888900F02D
:102F1000F5F8281200F0E6F8E8B200F0E3F828121D
:102F200000F0E0F8E8B200F0DDF80348008903495A
:102F30000880891C0A8030BD1C030020FE07006C3D
:102F40002DE9F84F80460F4616461C46BB462046E4
:102F5000E31704EB5373DB1021464FEAE47C04EBE8
:102F60005C7C4FEAEC0CA4EBCC0CBCF1000F02D063
:102F70004FF0010C01E04FF0000C6344224604EBDB
:102F8000D27C4FEA6C0C03FB0CF3DBB20093A6F18E
:102F90002000C6B200255EE00C2C07D106EB4600EF
:102FA0002F4901EB800010F805901BE0102C05D193
:102FB0002C4800EB061010F8059013E0182C07D1F0
:102FC00006EBC600284901EB800010F8059009E0E7
:102FD000202C05D1254800EBC61010F8059001E023
:102FE000BDE8F88F4FF0000A2FE009F0800030B103
:102FF0001F48394602684046FFF71EFF07E00A985F
:1030000028B91C48394602684046FFF715FF4FEAC9
:1030100049604FEA1069781C87B217484088B84267
:1030200000DCDDE7A7EB0B00A0420AD15F4608F108
:1030300001001FFA80F810480088404500DCCFE707
:1030400006E00AF1010000F0FF0ABAF1080FCCDB3C
:1030500000BF681CC5B2009885429DDB00BFBFE77A
:103060007E730008F2770008E27D00083E8B0008BE
:103070001C000020200000201C0300202DE9F84740
:1030800004460D4690469946DDE9096704F0FF0ABB
:1030900008EB04001FFA80F809EB05001FFA80F91D
:1030A00016E0444502DB5446A81985B24D4500DBC5
:1030B00014E0002000903A78334629462046FFF776
:1030C0003FFF304606EBD07104EB61018CB27F1CF0
:1030D00038787E2802DC38782028E2DA00BFBDE8A4
:1030E000F887000001B5BDF800000090BDF80000B1
:1030F0000149088008BD00000008006C01B5BDF85A
:1031000000000090BDF800000149088008BD0000E3
:10311000FE07006C00B585B000BF1B48806940F019
:103120000800194988610846806900F0080000908D
:1031300000BF00BF00BF0846806940F040008861C2
:103140000846806900F04000009000BF00BF2020CA
:1031500001900120029003900320049001A90B48E4
:10316000FEF794FA2020019001A90948FEF78EFA93
:10317000012220210548FEF731FC012220210448CC
:10318000FEF72CFC05B000BD00100240000C014011
:103190000018014000BFFEE77047704708B50849B6
:1031A0000968C9084FF47A72B1FBF2F1414300910A
:1031B00000BF00BF00994A1E00920029F9D108BD46
:1031C000000000203EB50EA000680290002413E02D
:1031D000E2B2022102A8FDF749FB48B109A0102183
:1031E0000B46C822CDE90010BE216E20FFF746FF36
:1031F000012000F0D5FB641C042CE9DB3EBD00007F
:10320000030000004661696C6564000070470000BF
:103210007FB5064600200290039000241FE036F898
:10322000140000F57A50400005B2E8B28DF80800AD
:10323000280A8DF80900E2B2082102A8FDF748FB30
:1032400048B108A010210B46C822CDE90010BE21CC
:103250006E20FFF713FF012000F0A2FB641C042C7A
:10326000DDDB7FBD4661696C6564000030B58FB001
:1032700005460024012005900004069000200790D8
:1032800002200C90C1030D910E9505A8FEF792FD4A
:1032900004460CB100BFFEE70F2000900220019011
:1032A000002002904FF480600390002004900221DF
:1032B0006846FEF749FC04460CB100BFFEE70FB0BC
:1032C00030BD10B5FEF796FB10BD00001148006838
:1032D00040F001000F490860084640680E49084068
:1032E0000C494860084600680C49084009490860D4
:1032F0000846006820F4802008600846406820F4F2
:10330000FE0048604FF41F008860C803044908604D
:1033100070470000001002400000FFF8FFFFF6FEBB
:1033200008ED00E010B50248FEF7F8FF10BD000000
:10333000B404002070B505460C46074807490860EC
:103340000846446000218160C5600161FEF794FF7A
:103350000248FEF7CDFF70BD00040040B404002019
:1033600010B50E480068C06800F0010078B10C4943
:1033700008698047002009490968486200BF642045
:1033800006490968C86264210448C16000BF6FF043
:10339000010002490968086110BD0000880500208D
:1033A000B000002010B50268204B98420ED0204B90
:1033B00098420BD0B0F1804F08D01E4B984205D0F8
:1033C0001D4B984202D01D4B984203D122F070024F
:1033D0004B681A43154B98420ED0154B98420BD0B0
:1033E000B0F1804F08D0134B984205D0124B984251
:1033F00002D0124B984203D122F44072CB681A4398
:1034000022F080034C6943EA040202608B68C362C5
:103410000B688362054B984202D0054B984201D15C
:103420000B6903630123436110BD0000002C0140C0
:10343000003401400004004000080040000C00403F
:1034400038B504460D4600BF1148C06940F004007D
:103450000F49C8610846C06900F00400009000BF31
:1034600000BF032211461E20FEF71BFB1E20FEF7A5
:1034700008FB08480849086008464560002181604B
:10348000C4600161FEF7F8FE0348FEF731FF38BD66
:1034900000100240000800408805002010B50B48CD
:1034A0000B4908604FF416504860002108488160BD
:1034B000C16001610C21416100218161FFF7C8F801
:1034C000012204490248FFF7E9F910BD0038014024
:1034D000480500206400002008B510A00068009096
:1034E0000F48104908604FF4E130486000210D4852
:1034F0008160C16001610C21416100218161FFF7A0
:10350000A7F84FF47A73042269460648FFF7F6FBE2
:10351000012205490348FFF7C1F908BD4143543072
:1035200000440040440400204C00002010B50B482B
:103530000B4908604FF4E130486000210848816081
:10354000C16001610C21416100218161FFF780F8B8
:10355000012204490248FFF7A1F910BD00480040CC
:10356000F40400206200002070B505466C6A00205B
:10357000E085E0842046FEF7C4FF70BD0168C9689D
:1035800021F490710268D1600168496921F001015C
:1035900002685161202180F83A10704710B5044646
:1035A0002068C06820F040002168C860202084F8AE
:1035B00039002046FFF70DFC002010BD70B5044611
:1035C00094F83A0022284AD1A068B0F5805F13D160
:1035D000A56A206940B920684068C0F308002880C7
:1035E000A06A801CA06219E020684068C0B22880F0
:1035F000A06A401CA06211E0206938B920684068C8
:10360000C1B2A26A501CA062117007E02068406835
:1036100000F07F01A26A501CA0621170E08D401E74
:1036200080B2E085C8B92068C06820F02000216819
:10363000C8602068C06820F480702168C860206875
:10364000406920F0010021684861202084F83A0098
:103650002046FFF75BF9002070BD0020FCE7022048
:10366000FAE7000070B504462168096921F4405169
:10367000E2681143226811612269A16811436269FD
:1036800041EA02052168C96841F20C62914329436D
:103690002268D1602168496921F44071A26911430F
:1036A00022685161564A2168914254D1FEF728FBA5
:1036B00000EBC00101EB001162689200B1FBF2F176
:1036C00000EBC00202EB001263689B00B2FBF3F256
:1036D0006423B2FBF3F202EBC20303EB0212A1EB91
:1036E0008201322202EB01116422B1FBF2F101F0FE
:1036F000F00100EBC00202EB001263689B00B2FB1A
:10370000F3F26423B2FBF3F201EB021200EBC0010F
:1037100001EB001163689B00B1FBF3F100EBC00308
:1037200003EB00136668B600B3FBF6F36426B3FB45
:10373000F6F303EBC30606EB0313A1EB830132237D
:1037400003EB01116423B1FBF3F101F00F0111440C
:103750002268916053E0FEF7C3FA00EBC00101EB71
:10376000001162689200B1FBF2F100EBC00202EBC3
:10377000001263689B00B2FBF3F26423B2FBF3F226
:1037800002EBC20303EB0212A1EB8201322202EB35
:1037900001116422B1FBF2F101F0F00100EBC00273
:1037A00002EB001263689B00B2FBF3F26423B2FBEE
:1037B000F3F201EB021200EBC00101EB00116368B0
:1037C0009B00B1FBF3F100EBC00303EB0013666851
:1037D000B600B3FBF6F36426B3FBF6F303EBC306C4
:1037E00006EB0313A1EB8301322303EB01116423E6
:1037F000B1FBF3F101F00F0111442268916070BD3B
:1038000000380140014691F8390021282CD1886800
:10381000B0F5805F0FD10A6A1088C0F308000B680A
:103820005860086918B9086A801C086209E0086ACB
:10383000401C086205E00B6A581C086218780B6887
:103840005860C88C401E80B2C88458B90868C068E7
:1038500020F080000B68D8600868C06840F0400025
:103860000B68D860002070470220FCE72DE9F0418A
:1038700004460D4617469846069E21E0701CF8B196
:103880002EB1FEF7B1F8A0EB0800B04218D92068BD
:10389000C06820F4D0702168C8602068406920F0BA
:1038A000010021684861202084F8390084F83A003A
:1038B00000BF002084F8380000BF0320BDE8F0817D
:1038C000206800682840A84201D1012000E00020C3
:1038D000B842D3D00020F1E710B50448FEF712FE3D
:1038E000012203490148FEF7D9FF10BD4805002019
:1038F0006400002010B50448FEF704FE01220349CD
:103900000148FEF7CBFF10BD440400204C0000200E
:1039100010B50448FEF7F6FD012203490148FEF701
:10392000BDFF10BDF40400206200002010B5024865
:10393000FDF787FA10BD00002C03002000BFFEE752
:1039400002480068C0F30220704700000CED00E060
:1039500010B5002804DB0A07130E054A135406E0CD
:103960000A07140E034A00F00F031B1FD45410BDA6
:1039700000E400E018ED00E030380A2801D2012010
:1039800070470020704700BF7047000010B5044624
:103990000420FEF741FC0148046010BD1000002027
:1039A00030B50446002504E04FF47A7000F004F8C6
:1039B0006D1CA542F8D330BD70B5034600224FF010
:1039C000E02675690D4E366803FB06F44FF0E026DD
:1039D000B16910E04FF0E026B06988420BD0884210
:1039E00002D20E1A324402E02E1A0E44324401462C
:1039F000A24200D300E0EDE700BF70BD1000002040
:103A000010B52B48006830B101280AD002281AD01E
:103A1000032846D126E026480068401C2449086057
:103A200043E02448807C08B100F026F900F0FAFF5A
:103A300040B1162000F0E0FA20B11D480068401C9B
:103A40001B49086031E000F085F900F0EBFF40B160
:103A5000172000F0D1FA20B115480068401C144925
:103A6000086022E000F0D2F9134A1168134A106886
:103A700003F060FA0ED0104A5168104A506803F003
:103A800059FA07D00E480078022809D100200849C9
:103A9000086005E000F064FF10B1002004490860F0
:103AA00003E000200249086000BF00BF10BD000015
:103AB000E80100203405002018BB00083400002075
:103AC000B001002010B53F48007848B93E48007862
:103AD000022805D101203B49087000203B490860BD
:103AE0003A480068072866D2DFE800F0040A1C2B79
:103AF0003A49580035480068401C344908605EE087
:103B00003348807C08B100F039FD00F08BFF40B1F4
:103B10000C2000F071FA20B12C480068401C2B49A1
:103B200008604CE000F08CFD00F07CFF40B10D20FF
:103B300000F062FA20B125480068401C2349086063
:103B40003DE000F0CDFD00F06DFF40B10A2000F037
:103B500053FA20B11D480068401C1C4908602EE043
:103B600000F006FE00F05EFF40B10F2000F044FAC6
:103B700020B116480068401C144908601FE000F09E
:103B800047FE00F04FFF40B1102000F035FA20B1A1
:103B90000E480068401C0D49086010E000F088FEE7
:103BA00000F040FF30B1112000F026FA10B10020E3
:103BB0000649086000BF00200449086000BF00BF3C
:103BC00010BD0000E0010020B0010020DC01002059
:103BD0003405002010B52448007848B923480078FF
:103BE000022805D1012020490870002020490860E2
:103BF0001F48006820B1012814D002282ED120E0EF
:103C00001C48807C08B101F085F800F00BFF40B142
:103C1000062000F0F1F920B115480068401C144955
:103C200008601FE001F0EEF800F0FCFE40B1072054
:103C300000F0E2F920B10E480068401C0C49086011
:103C400010E001F03BF900F0EDFE30B1082000F08B
:103C5000D3F910B100200649086003E000200449B0
:103C6000086000BF00BF10BDCC010020B0010020E3
:103C7000C80100203405002010B53248007848B94A
:103C800031480078022805D101202E490870002013
:103C90002E4908702D48007830B1012814D0022830
:103CA00023D0032847D13BE0152001F05DF900F057
:103CB000B9FE40B1152000F09FF920B123480078EB
:103CC000401C224908703AE01F480078012803D1BF
:103CD000142001F049F902E0182001F045F91B48D1
:103CE0000078401C1949087029E0142000F084F97C
:103CF00018B9182000F080F988B1022000F0EAFB22
:103D0000134901EBC004D4E9000100F01BFE1620AA
:103D100001F02AF90D480078401C0C4908700EE0AB
:103D200000F080FE30B1162000F066F910B10020DE
:103D30000649087003E000200449087000BF00BF76
:103D400010BD0000E2010020B0010020E1010020D0
:103D5000F805002010B52948007848B928480078AF
:103D6000022805D101202549087000202549087046
:103D70002448007820B1012813D0022837D12BE045
:103D80001F480078012803D1142001F0EDF802E06B
:103D9000182001F0E9F81B480078401C1949087008
:103DA00029E0142000F028F918B9182000F024F9AF
:103DB00088B1032000F08EFB134901EBC004D4E965
:103DC000000100F0BFFD172001F0CEF80D4800788B
:103DD000401C0C4908700EE000F024FE30B11720A2
:103DE00000F00AF910B100200649087003E0002035
:103DF0000449087000BF00BF10BD0000E4010020AE
:103E0000B0010020E3010020F805002010B51F4894
:103E1000007810B1012833D110E01D480078012846
:103E200003D1142001F0A0F802E0182001F09CF862
:103E300016480078401C1549087025E0142000F051
:103E4000DBF818B9182000F0D7F8C0B11048007896
:103E5000012806D102200E49087000200B49087085
:103E60000DE00B480078022809D10A4803C800F089
:103E700069FD00F075FD10B100200449087003E0F1
:103E800000200249087000BF00BF10BDE5010020FE
:103E9000B001002018BB000800BF054A126802F0FC
:103EA0004002002AF9D0C2B2014B1B1D1A607047B4
:103EB0000038014010B51048007890B101210F483A
:103EC000FDF784FD01280CD10A20FFF769FD0020D1
:103ED0000949087001210948FDF778FD012808D13A
:103EE00010BD01210548FDF771FD10B901200249FF
:103EF00008700020F4E700002500002000080140C1
:103F000008B5FDF783FD4FF4E010FFF7AFF9482047
:103F1000FFF73CFDFEF760FF1748416854208847D3
:103F2000FFF7F8F8FFF7BAFAFFF7D6FAFFF7FEFA4D
:103F30004FF080400423C2124FF4E00100900020B3
:103F4000FCF764FCFCF7F6FC002001F00DF800BF64
:103F5000FFF7B0FF0028FBD04FF47A70FFF720FD89
:103F60004FF47A614FF4B470FFF7E4F9FFF72AF9E0
:103F700001E000F0B1FDFCE7B00000202DE9F047C2
:103F80000746884614461D464146384603F03AF92E
:103F900001D3012000E00020824603F01BF8064612
:103FA0004146384603F02EF901D2384600E040463B
:103FB00081462146484603F025F901D2304601E00A
:103FC0004FF0804006462146484603F01BF901D2D7
:103FD000484600E0204681462946484603F012F94B
:103FE00001D2304600E003480646304602F0D6FFD4
:103FF000BDE8F0870000404001461248006842F2E8
:104000001072904203DB10480078814212D00F48B2
:104010004078082805D10D488078884201D10120D8
:10402000704708480068401C064A10600648017046
:104030000020F5E70020034A1060034801700120CA
:10404000EEE700006C0000207000002066000020F9
:104050002DE9F04F8FB0E74AD168E74A106803F0C6
:104060000DF90D90E34A1169E34A506803F006F92F
:104070000C90DDE90C0103F001F9E0490860DDE98D
:104080000C0102F027FEDD494860DDE90C0102F079
:1040900021FEDA498860DDE90C0103F0EFF8D74929
:1040A000C860C86802F0EAFD21F00041064602F04F
:1040B00007F98046D149886802F0E0FD21F000410F
:1040C000064602F0FDF88246CC49486802F0D6FD6B
:1040D00021F00041064602F0F3F88346C74908681C
:1040E00002F0CCFD21F00041064602F0E9F8054659
:1040F000434652465946FFF741FF8146BE4A116882
:10410000BF4A106802F016FF06D1BB4A5168BC4A8C
:10411000506802F00FFF28D0002424E00020B949A5
:1041200041F82400B84941F82400B44951F8290065
:1041300002F0A4FD21F000460546B04850F82410D6
:10414000B24802F093FF079002F098FD07462A4616
:10415000334602F09BF9824602F0F0FA00B2AC4915
:1041600021F81400641C042CD8DB00240BE0A34AC3
:1041700052F82410A34A52F8240002F0ABFDA149E2
:1041800041F82400641C042CF1DB00F051F90024F8
:1041900046E09D4A52F82410984A52F8240003F051
:1041A0006DF8074602F06AFD05460022994B02F0C1
:1041B00047FBCDE90601934951F8240002F05EFD6A
:1041C000954A964BCDE9020102F03AFB05460E46B0
:1041D0008A4951F8240002F051FD0022904BCDE9AC
:1041E000020102F02DFB07462A46334602F09AF8F8
:1041F000CDE90401DDE9062302F094F8824602F0DD
:104200005FF808A941F82400864A52F8241008AA49
:1042100052F8240002F05EFD08A941F82400641C55
:10422000042CB6DB784A52F82910744A52F8290057
:1042300003F024F8059002F021FD05460022754B9D
:1042400002F0FEFA074688466E4951F8290002F04E
:1042500015FD0546704A714B02F0F2FACDE90401F2
:10426000664951F8290002F009FD054600226C4B11
:1042700002F0E6FACDE90201DDE9042302F052F88A
:1042800082463A46434602F04DF8CDE9060102F077
:1042900017F808A941F82900002457E05C4931F9D2
:1042A000140002F097FE804608A850F824104046FB
:1042B00002F0D9FF054602F0E1FC21F0004106467C
:1042C0000022594B02F0BAFB3FD2514931F9140098
:1042D00002F080FE834608A850F82410584602F0E9
:1042E000C2FF824602F0CAFC21F00046054648495A
:1042F00031F9140002F06EFE834608A850F824102D
:10430000584602F0B0FF824602F0B8FC0022464B4D
:10431000CDE9000102F094FA2A463346CDE90201C4
:1043200002F0B4F8CDE90601394931F9140002F080
:1043300034FACDE90401DDE9062301F0F3FF074675
:1043400001F0BEFF08A941F82400641C042CA5DB81
:1043500008A951F8290002F091FC21F0004105461E
:104360000022324B02F06AFB25D2002421E008A98A
:1043700051F8290002F082FC21F0004102460B4670
:10438000CDE906010020294902F080F80746884659
:1043900008A951F8240002F071FC82463A464346CF
:1043A00002F04EFA054601F08BFF08A941F82400FF
:1043B000641C042CDBDB00240FE008A951F8240066
:1043C00002F0ECFD00B2124921F814000B4850F83D
:1043D00024000D4941F82400641C042CEDDB064840
:1043E0000068074908600448406848600FB0BDE8AD
:1043F000F08F00008404002034000020140400200A
:10440000440000203404002024040020000048421E
:104410002A00002000005440F168E388B5F8E43E2B
:1044200000002040E40300200000044000C062407F
:104430002DE9FC5F00243AE01F4931F914101F4AAE
:1044400032F91420881A02F0C5FD1D4941F82400F4
:104450001C4A52F824101A4A52F8240002F00EFFA7
:10446000834602F00BFC07460022174B02F0E8F9E6
:1044700081468A46124951F8240002F0FFFB0746A4
:104480000022124B02F0DCF94A465346CDE9000106
:1044900001F048FF054601F013FF0D4941F82400E3
:1044A000074850F82400074941F82400641C042CF4
:1044B000C2DBBDE8FC9F00002A000020C4030020EE
:1044C000F403002004040020000014400000F83F22
:1044D000E40300200146012917D127480078264A25
:1044E000D278904201D10020704723480078224AB8
:1044F0001279904201D10120F6E71F4800781E4A48
:104500005279904201D10220EEE7022917D11A48D0
:104510004078194AD278904201D10020E4E7164849
:104520004078154A1279904201D10120DCE7124807
:104530004078114A5279904201D10220D4E70329F0
:1045400017D10D4880780C4AD278904201D10020D2
:10455000CAE709488078084A1279904201D10120BF
:10456000C2E705488078044A5279904201D102207E
:10457000BAE74FF0FF30B7E73405002010B52C48FC
:10458000007848B92B480078022805D10120284935
:1045900008700020284908702748007830B10128A9
:1045A0000DD002281BD003283BD12FE00B2000F0B8
:1045B000DBFC21480078401C1F49087035E000F002
:1045C00031FA58B10B20FFF717FD38B10A2000F07F
:1045D000CBFC19480078401C1749087025E00A20D8
:1045E000FFF70AFD88B10220FFF774FF134901EBC2
:1045F000C004D4E9000100F0A5F90C2000F0B4FCDF
:104600000D480078401C0C4908700EE000F00AFAD2
:1046100030B10C20FFF7F0FC10B100200649087003
:1046200003E000200449087000BF00BF10BD000077
:10463000CE010020B0010020CD010020E0050020C7
:1046400010B52348007848B922480078022805D1DF
:1046500001201F49087000201F4908701E4800787B
:1046600020B101280BD002282BD11FE00A2000F036
:104670007BFC19480078401C1749087025E00A2087
:10468000FFF7BAFC88B10320FFF724FF134901EBC1
:10469000C004D4E9000100F055F90D2000F064FCDD
:1046A0000D480078401C0C4908700EE000F0BAF983
:1046B00030B10D20FFF7A0FC10B1002006490870B2
:1046C00003E000200449087000BF00BF10BD0000D7
:1046D000D0010020B0010020CF010020E005002023
:1046E00010B51F48007848B91E480078022805D147
:1046F00001201B49087000201B4908701A480078E7
:1047000020B101280BD0022824D11CE00A2000F09F
:104710002BFC15480078401C134908701EE00A2045
:10472000FFF76AFC70B10120FFF7D4FE0F4901EBDF
:10473000C004D4E9000100F005F90B480078401CE2
:10474000094908700AE000F06DF910B1002006492F
:10475000087003E000200449087000BF00BF10BDCE
:10476000D2010020B0010020D1010020E00500208E
:1047700010B52348007848B922480078022805D1AE
:1047800001201F49087000201F4908701E4800784A
:1047900020B101280BD002282BD11FE00E2000F001
:1047A000E3FB19480078401C1749087025E00E20EB
:1047B000FFF722FC88B10220FFF78CFE134901EBC2
:1047C000C004D4E9000100F0BDF80F2000F0CCFBDC
:1047D0000D480078401C0C4908700EE000F022F9EA
:1047E00030B10F20FFF708FC10B100200649087017
:1047F00003E000200449087000BF00BF10BD0000A6
:10480000D4010020B0010020D3010020E0050020E9
:1048100010B52348007848B922480078022805D10D
:1048200001201F49087000201F4908701E480078A9
:1048300020B101280BD002282BD11FE00E2000F060
:1048400093FB19480078401C1749087025E00E209A
:10485000FFF7D2FB88B10320FFF73CFE134901EBC1
:10486000C004D4E9000100F06DF8102000F07CFBDA
:104870000D480078401C0C4908700EE000F0D2F89A
:1048800030B11020FFF7B8FB10B1002006490870C6
:1048900003E000200449087000BF00BF10BD000005
:1048A000D6010020B0010020D5010020E005002045
:1048B00010B52048007848B91F480078022805D173
:1048C00001201C49087000201C4908701B48007812
:1048D00020B101280BD0022825D119E00E2000F0CC
:1048E00043FB16480078401C144908701FE00E2056
:1048F000FFF782FB58B1124803C800F023F81120DB
:1049000000F032FB0D480078401C0C4908700EE0A6
:1049100000F088F830B11120FFF76EFB10B10020D5
:104920000649087003E000200449087000BF00BF7A
:1049300010BD0000D8010020B0010020D7010020E8
:1049400008BB000803B50449009808600198486056
:104950000120024908600CBD34000020A4010020A1
:1049600070B52A4A11682A4AD06802F087FC0646C8
:1049700002F084F921F0004104460022254B01F0A9
:1049800023FF30D2214A5168214A106902F076FC97
:10499000064602F073F921F00041044600221D4B47
:1049A00001F012FF1FD21A49086802F067F921F0DE
:1049B000004104460022184B01F006FF13D21748AD
:1049C000B0F9000005280EDA1448B0F902000528F5
:1049D00009DA1248B0F90400052804DA0F48B0F9E2
:1049E000060005280BDB0A49C868002102F00AFB13
:1049F0000AD207490869002102F004FB04D2002012
:104A000007490860012070BD0020FCE73400002049
:104A1000840400200000104000000840C40300206F
:104A2000A401002070B5254A1168254AD06802F01B
:104A300025FC064602F022F921F00041044600223E
:104A4000204B01F0C1FE36D21C4A51681C4A106945
:104A500002F014FC064602F011F921F00041044670
:104A60000022184B01F0B0FE25D21549086802F06B
:104A700005F921F00041044600224FF0804301F087
:104A8000A3FE18D21048B0F90000042813DA0E482B
:104A9000B0F9020004280EDA0B48B0F9040004282B
:104AA00009DA0948B0F90600042804DA00200749A9
:104AB0000860012070BD0020FCE7000034000020E9
:104AC0008404002000001040C4030020A401002042
:104AD000014608687047000010B552480068092870
:104AE0007ED2DFE800F005141D2F3E4A7081900051
:104AF00000F0A2F8012000F037FA4B4803C8FFF796
:104B000021FF48480068401C4649086088E0FFF7DC
:104B100089FF20B143480068401C424908607FE09B
:104B20004248807C08B1FFF755F8FFF77BFF40B1A2
:104B30000820FFF761FA20B13A480068401C394963
:104B400008606DE0FEF7BEFFFFF76CFF40B111207B
:104B5000FFF752FA20B133480068401C3149086021
:104B60005EE0FEF74DFF32480078022804D12D4860
:104B70000068401C2B49086052E02C48C07B2B4940
:104B8000C8700846007C08710846407C4871084699
:104B9000407A08700846807A48700846C07A887063
:104BA0000120FFF797FC234901EBC004D4E9000181
:104BB000FFF7C8FEFFF736FF20B11A480068401C17
:104BC0001849086000BFFFF705F8FFF72BFF50B149
:104BD0000820FFF711FA30B112480068401C00E0CD
:104BE0001AE0104908601BE0FEF76CFFFFF71AFFA0
:104BF00040B11120FFF700FA20B10A480068401CBC
:104C0000084908600CE0FEF7FBFEFFF7A9FE10B1B3
:104C100000200449086003E000200249086000BF4A
:104C200000BF10BDEC010020C8BA00083405002008
:104C3000B0010020C80500202848294A06CA06C03D
:104C40000838284A06CAC0E90212274A06CAC0E93B
:104C500004122648264A06CA06C00838254A06CA4B
:104C6000C0E90212244A06CAC0E904122348244AB1
:104C700006CA06C00838234A06CAC0E90212224AF8
:104C800006CAC0E9041201202049887488710220F4
:104C9000C871032008724872022088720120C8720D
:104CA00008700220487003208870022008730120D9
:104CB000487303208873C873022008740120487465
:104CC0000846007BC8700846407B08710846807B18
:104CD000487101200E49087070470000C805002087
:104CE000E0BA0008D8BA0008D0BA0008E0050020F1
:104CF000F8BA0008F0BA0008E8BA0008F805002081
:104D000010BB000808BB000800BB000834050020E9
:104D1000B001002010B53648007848B93548007811
:104D2000022805D10120324908700020324908705C
:104D30003148007830B1012817D0022826D0032846
:104D40004FD13EE00120FFF7C5FB2C4901EBC00429
:104D5000D4E90001FFF7F6FDFFF764FE20B1264815
:104D60000078401C244908703FE022480078012860
:104D700003D1042000F0F8F802E0052000F0F4F878
:104D80001D480078401C1C4908702EE00420FFF7E5
:104D900033F918B90520FFF72FF988B10220FFF782
:104DA00099FB164901EBC004D4E90001FFF7CAFDE5
:104DB000062000F0D9F810480078401C0E49087011
:104DC00013E0FFF72FFE58B10620FFF715F938B1B1
:104DD000002009490870002220210948FCF7FEFD47
:104DE00003E000200449087000BF00BF10BD0000B0
:104DF000C1010020B0010020C0010020C805002032
:104E00000018014010B52948007848B928480078B2
:104E1000022805D101202549087000202549087085
:104E20002448007820B1012813D0022837D12BE084
:104E30001F480078012803D1042000F095F802E013
:104E4000052000F091F81B480078401C19490870B3
:104E500029E00420FFF7D0F818B90520FFF7CCF8B7
:104E600088B10320FFF736FB134901EBC004D4E9F6
:104E70000001FFF767FD072000F076F80D48007885
:104E8000401C0C4908700EE0FFF7CCFD30B1072044
:104E9000FFF7B2F810B100200649087003E00020C7
:104EA0000449087000BF00BF10BD0000C30100200E
:104EB000B0010020C2010020C805002010B526481E
:104EC000007848B925480078022805D101202249F8
:104ED00008700020224908702148007820B101287C
:104EE00013D0022831D125E01C480078012803D1D5
:104EF000042000F039F802E0052000F035F81848E9
:104F00000078401C1649087023E00420FFF774F86D
:104F100018B90520FFF770F858B1124803C8FFF719
:104F200011FD082000F020F80D480078401C0C49C5
:104F300008700EE0FFF776FD30B10820FFF75CF84F
:104F400010B100200649087003E0002004490870F1
:104F500000BF00BF10BD0000C5010020B00100204F
:104F6000C4010020F0BA00087CB504460025552095
:104F70008DF800008DF8010005208DF80200062054
:104F80008DF803008DF8044001208DF80500002005
:104F90008DF806004FF47A73072269460148FDF741
:104FA000ADFE7CBD4805002030B595B0054613AB7D
:104FB00012AA09A9284600F03FFA044614B1204677
:104FC00015B030BD0020149026E0224909689DF8F4
:104FD000502001EBC20113AB11AA486801A900F0EF
:104FE0002BFA04460CB12046EAE709A901A800F013
:104FF000E1FC60B99DF844009DF84810884201DD4D
:105000000220DDE79DF85000124988750AE09DF8FE
:105010005000401CC0B214900E48007D9DF8501006
:105020008842D2DC00BF0B48007D9DF850108842BA
:1050300001D10420C4E714A9284600F0DDFA044693
:105040000CB12046BCE79DF850000249487500208D
:10505000B6E70000B00000202DE9F0419AB09C486E
:10506000847D007DA04202DC1AB0BDE8F081984941
:10507000096801EBC40106AB07AA486808A900F05B
:10508000DBF908A993A0FBF7F3F8002644E0904869
:10509000008B0121B1400840D8B122218FA0FBF73D
:1050A000E7F8304600F02EFB89492431471839468D
:1050B0008BA0FBF7DDF8222188A0FBF7D9F830465A
:1050C00000F020FB82492431084410A941F8260051
:1050D00018E0304600F016FB7D492431085810A92D
:1050E00041F826007A48C07D30B910A850F8261043
:1050F0007CA0FBF7BDF805E010A850F826107AA0B8
:10510000FBF7B6F89DF81C00401EB04202D078A014
:10511000FBF7AEF8701CC6B29DF81C008642B6DBE9
:1051200074A0FBF7A5F800F03FFB6948407D0B2811
:105130000DD2DFE800F0060D151E27323F4E5F72DC
:1051400087006349096851F834008047054690E0BC
:105150005F4A126852F8341010988847054688E074
:105160005B4B1B6853F83420DDE91001904705467E
:105170007FE0574F3F6857F8343010A807C898476A
:10518000054676E0DFF848C1DCF800C05CF8347012
:1051900010A80FC8B84705466BE01498DFF830C177
:1051A0000090DCF800C05CF8347010A80FC8B84755
:1051B00005465EE0DDE91401DFF814C1CDE9000128
:1051C000DCF800C05CF8347010A80FC8B84705467A
:1051D0004FE0DDE914121698DFF8F4C0CDE90012B3
:1051E0000290DCF800C05CF8347010A80FC8B84713
:1051F00005463EE0DDE91423DDE91610DFF8D0C0F6
:10520000CDE90023CDE90210DCF800C05CF8347071
:1052100010A80FC8B84705462BE0DDE91523DDE9E6
:105220001710CDE90123CDE903101498DFF8A0C0D1
:105230000090DCF800C05CF8347010A80FC8B847C4
:10524000054616E0DDE91623DDE91810CDE9022355
:10525000CDE90410DDE91401DFF874C0CDE90001E7
:10526000DCF800C05CF8347010A80FC8B8470546D9
:1052700000BF00BF00F056FA9DF8180001280CD1BD
:105280001348C07D20B929461BA0FAF7F1FF07E0BB
:1052900029461BA0FAF7ECFF02E018A0FAF7E8FF96
:1052A0000B4890F8EC0088B10948D0F8F0000A21CA
:1052B000B0FBF1F201FB12070548D0F8F000B0FB9B
:1052C000F1F83A46414611A0FAF7D2FF00BFCBE60B
:1052D000B00000200D0A257328000000256300009F
:1052E00025730000256C640030582558000000002C
:1052F0002C000000290000003D256C753B0D0A00C4
:105300003D305825583B0D0A0000000046756E637D
:1053100074696F6E2052756E2054696D653A25640C
:105320002E2531646D730D0A00000000F0B50346B0
:10533000154600200022002600245BE01F782C2F59
:1053400001D104B901221F78292F01D01F780FB98C
:1053500004B950E0002E3AD11F78302F02DB1F78BD
:10536000392F17DD1F782D2F14D01F782B2F11D038
:105370001F78612F02DB1F78662F0BDD1F78412F0E
:1053800002DB1F78462F05DD1F78582F02D01F78CB
:10539000782F0CD102B12EE01F78612F03DB1F782C
:1053A000203F0F7001E01F780F70491C1FE01F782D
:1053B000222F04D102B11EE00126012417E01F783C
:1053C000202F14D01F782C2F11D0FF2613E01F7828
:1053D000222F00D1002402B10DE044B11F785C2FD0
:1053E00002D15B1C471CF8B21F780F70491C471C88
:1053F000F8B25B1CA2E700BF00270F702E70F0BD53
:1054000010B50446002010700BE020780870641C72
:10541000491C1078401C10701078984201DB012064
:1054200010BD2078202802D020780028EDD100205F
:10543000087000BFF4E700002DE9FF4F85B08046FB
:1054400089460027002004900390012002904FF02D
:10545000000B002544461DE02078202816D005F0DA
:105460007F00052812DA0DB945F0800505F07F00B0
:10547000042803D120782A2800D00EE0207805F0F7
:105480007F010DF80100681CC5B202E0852D00D136
:1054900003E0641C20780028DED100BF8DB100201D
:1054A00005F07F010DF8010051A1684600F082FA75
:1054B00018B900210898017002E0012108980170D4
:1054C00000254FF0000A444614E0641C0AF1010074
:1054D00000F0FF0A2078202802D020782A2809D15D
:1054E000204600F0D9F90646282E03D02A2E01D0F6
:1054F000CDF810A02078282802D020780028E4D108
:105500004446049810B10498401C04444FF0000A2B
:10551000002654E0207810B94FF0010A50E02078BE
:10552000282803D116B9781CC7B213E0207829289F
:1055300008D13EB917B1781EC7B201E04FF0010A99
:1055400047B93DE02078222804D10EB9012000E0BF
:105550000020064647B9207820282FD0207889F8E7
:10556000000009F1010929E020782C2804D101204C
:105570000290681CC5B214E02078202811D0207851
:1055800028280ED04DB9BBF1050F06DA20780DF8AA
:105590000B000BF1010000F0FF0B0298401CC0B2A1
:1055A0000290012F0AD10298022807D10298401CCC
:1055B000C0B202900398401CC0B20390641CA9E7DB
:1055C00000BF0398012809D100200DF80B0008A1A5
:1055D000684600F0EFF908B9002003900799039896
:1055E0000870002089F80000504609B0BDE8F08F2F
:1055F000766F6964000000002DE9F043B5B0054600
:105600000F460024002604E000213D488155701C0F
:10561000C6B20A2EF8DB06E06D1C287818B9012006
:1056200035B0BDE8F08328782828F5D16D1C61E0FD
:1056300034AA69462846FFF779FE064635449DF8A8
:10564000D00020B1012827D0FF284CD149E09DF897
:10565000000000B333A9684600F029F906460EB1F0
:105660000220DDE7204600F04DF825490A31339A43
:105670000A50A1F12400008B0121A1408843204958
:105680001A39088304211E480155601CC4B20A2C33
:1056900001DD0320C4E726E0684600F0A7F9401CBE
:1056A00000F0FF08204600F02DF815490A3100EB04
:1056B00001094946684600F08EF911481A38018BF5
:1056C0000120A040014388B20D491A3908830C48D3
:1056D00000F80480601CC4B20A2C01DD03209FE79F
:1056E00001E002209CE700BF2878292801D0287813
:1056F00000B900E09CE700BF3C70002090E700008C
:10570000CA00002002460020002105E0044B5B5C3B
:105710000344D8B24B1CD9B29142F7DB704700006A
:10572000CA0000200E480068006900F0010040B186
:105730000C48D0F8F0004FF6FF7108440949C1F851
:10574000F0000848D0F8F00005490968496A0844A3
:105750000449C1F8F0000846D0F8F0007047000096
:1057600088050020B000002010B5044604EBC400FA
:1057700000EB04100122C2EB800081B24FF47A707A
:10578000FDF75EFE01200149C87510BDB000002084
:1057900010B50246012000E050430B00A1F10104C6
:1057A000E1B2F9D110BD00006FF0010009490968AC
:1057B000086100BF000C07490968C8620146054836
:1057C000C16000BF00200349096848620249C1F86E
:1057D000F000704788050020B000002070B51D481B
:1057E000008800F40040002833D01A4805780020D3
:1057F00019494855194881681748884704461CB913
:105800001649C868804721E0134800F0FBF80546B8
:10581000012D00D02C46CCB1012C06D0022C08D092
:10582000032C0AD0042C10D10BE00DA0FAF720FDB8
:105830000BE00EA0FAF71CFD07E00FA0FAF718FD29
:1058400003E010A0FAF714FD00BF00BF00200149DB
:10585000088070BD18000020F0010020B00000207A
:10586000BAAFCAFDB4EDCEF3210D0A00B2CECAFD27
:10587000B4EDCEF3210D0A00B2CECAFDCCABB6E03A
:10588000210D0A00CEB4D5D2B5BDC6A5C5E4B5C4B8
:10589000BAAFCAFD210D0A000146491C00E0491CAF
:1058A0000878202801D10029F9D1087870472DE91E
:1058B000F04F05460F4600264FF00A09B3462C4626
:1058C0000020386034E02078392802DC2078302845
:1058D00011DA28782D2802D028782B2800D156B14B
:1058E0002078462802DC2078412804DA20785828DD
:1058F00017D1012E15D12078412801DB4FF0100976
:1059000028782D2803D14FF0020B6D1C0FE028786A
:105910002B2803D14FF0010B6D1C08E0701CC6B2A0
:1059200005E0207800B904E00120BDE8F08F641C98
:10593000C9E700BF2C46B9F1100F0FD1032E01DAD1
:105940000220F2E72078302806D16078582803D169
:10595000A41CB01EC6B204E00320E6E70EB9042082
:10596000E3E71BE00EB1701EC6B22078392806DCD2
:105970002078302803DB2078A0F1300A02E020787C
:10598000A0F1370A31464846FFF702FF39680AFBA3
:1059900000103860641C207800B900E0E2E700BF26
:1059A000BBF1020F04D13868C0F10008C7F80080CD
:1059B0000020BAE702460AE010780B78984201D03E
:1059C00001207047107800B902E0521C491CF3E72F
:1059D00000BF0020F5E706E002780A70027802B9FD
:1059E00002E0401C491CF7E700BF70470146002059
:1059F00005E00A7802B903E0421CD0B2491CF8E77E
:105A000000BF704710B58CB004461E230BAA03A933
:105A10002046FFF7F5FC0090009810B101200CB073
:105A200010BD9DF82C00044400200B900EE040486F
:105A30009DF82C2050F8221003A8FFF7BBFF00B9F7
:105A400008E09DF82C00401CC0B20B909DF82C0083
:105A50000728ECD300BF9DF82C00072863D2DFE8AD
:105A600000F004053C5E6564630000BF31A0FAF7F6
:105A7000FFFB31A0FAF7FCFB3FA0FAF7F9FB4EA0C1
:105A8000FAF7F6FB5CA0FAF7F3FB6BA0FAF7F0FB72
:105A900079A0FAF7EDFB87A0FAF7EAFB8CA0FAF7FA
:105AA000E7FB94A0FAF7E4FB98A0FAF7E1FB9DA0CE
:105AB000FAF7DEFBA2A0FAF7DBFBA8A0FAF7D8FB07
:105AC000B4A0FAF7D5FBC1A0FAF7D2FBCCA0FAF745
:105AD000CFFBD8A0FAF7CCFBA2E216A0FAF7C8FBDE
